8=FIX.4.4^A9=282^A35=8^A34=118964^A49=OKSERVER^A52=20160607-11:25:40.071^A56=00000000-0000-0000-0000-000000000000^A6=0^A11=b80091ca-52f7-43b3-ae8b-ab6ac0ba438a^A14=0^A17=ae15b5dfcc3b4caaaff058959e17e681^A37=refused^A38=0.1^A39=8^A54=1^A55=BTC/CNY^A58=request failed please retry errorcode:10049^A103=99^A150=8^A151=0^A10=096^A