8=FIX.4.4^A9=175^A35=9^A34=14907^A49=OKSERVER^A52=20160613-06:56:50.594^A56=00000000-0000-0000-0000-000000000000^A11=b39f8f02-4715-4138-90ff-de158519c5ee^A37=3777572314^A39=8^A41=3777572314^A54=2^A434=1^A10=067^A