8=FIX.4.4^A9=139^A35=Z1001^A34=2^A49=OKSERVER^A52=20141123-17:14:32.925^A56=BD703B2E-7ED8-491D-84DD-A7E73BFEE422^A1=1234567^A15=CNY/BTC/LTC^A8001=8.290051/1.0623/0^A10=111^A